{
  "contractName": "RewardEscrow",
  "abi": [
    {
      "inputs": [],
      "stateMutability": "nonpayable",
      "type": "constructor"
    },
    {
      "anonymous": false,
      "inputs": [
        {
          "indexed": false,
          "internalType": "address",
          "name": "account",
          "type": "address"
        }
      ],
      "name": "LogAssignedAgent",
      "type": "event"
    },
    {
      "anonymous": false,
      "inputs": [
        {
          "indexed": false,
          "internalType": "string",
          "name": "surveyId",
          "type": "string"
        },
        {
          "indexed": false,
          "internalType": "address",
          "name": "to",
          "type": "address"
        }
      ],
      "name": "LogReturnRemainingCredit",
      "type": "event"
    },
    {
      "anonymous": false,
      "inputs": [
        {
          "indexed": false,
          "internalType": "string",
          "name": "surveyId",
          "type": "string"
        },
        {
          "indexed": false,
          "internalType": "address",
          "name": "by",
          "type": "address"
        },
        {
          "indexed": false,
          "internalType": "uint256",
          "name": "amount",
          "type": "uint256"
        }
      ],
      "name": "LogRewardDeposited",
      "type": "event"
    },
    {
      "anonymous": false,
      "inputs": [
        {
          "indexed": false,
          "internalType": "string",
          "name": "surveyId",
          "type": "string"
        },
        {
          "indexed": false,
          "internalType": "address",
          "name": "surveyCreator",
          "type": "address"
        },
        {
          "indexed": false,
          "internalType": "uint256",
          "name": "amount",
          "type": "uint256"
        }
      ],
      "name": "LogRewardPoolInfoGet",
      "type": "event"
    },
    {
      "anonymous": false,
      "inputs": [
        {
          "indexed": false,
          "internalType": "string",
          "name": "surveyId",
          "type": "string"
        },
        {
          "indexed": false,
          "internalType": "address",
          "name": "from",
          "type": "address"
        },
        {
          "indexed": false,
          "internalType": "uint256",
          "name": "amount",
          "type": "uint256"
        }
      ],
      "name": "LogRewardPoolInfoSet",
      "type": "event"
    },
    {
      "anonymous": false,
      "inputs": [
        {
          "indexed": false,
          "internalType": "string",
          "name": "surveyId",
          "type": "string"
        },
        {
          "indexed": false,
          "internalType": "address",
          "name": "by",
          "type": "address"
        }
      ],
      "name": "LogSurveyCreated",
      "type": "event"
    },
    {
      "inputs": [],
      "name": "getEscrowContractBalance",
      "outputs": [
        {
          "internalType": "uint256",
          "name": "",
          "type": "uint256"
        }
      ],
      "stateMutability": "view",
      "type": "function",
      "constant": true
    },
    {
      "inputs": [
        {
          "internalType": "string",
          "name": "_surveyId",
          "type": "string"
        }
      ],
      "name": "getRewardPoolInfo",
      "outputs": [
        {
          "components": [
            {
              "internalType": "address payable",
              "name": "erc20Address",
              "type": "address"
            },
            {
              "internalType": "uint256",
              "name": "totalRewards",
              "type": "uint256"
            },
            {
              "internalType": "uint256",
              "name": "rewardPerResponse",
              "type": "uint256"
            }
          ],
          "internalType": "struct RewardEscrow.RewardPoolInfo",
          "name": "",
          "type": "tuple"
        }
      ],
      "stateMutability": "view",
      "type": "function",
      "constant": true
    },
    {
      "inputs": [
        {
          "components": [
            {
              "internalType": "address payable",
              "name": "erc20Address",
              "type": "address"
            },
            {
              "internalType": "uint256",
              "name": "totalRewards",
              "type": "uint256"
            },
            {
              "internalType": "uint256",
              "name": "rewardPerResponse",
              "type": "uint256"
            }
          ],
          "internalType": "struct RewardEscrow.RewardPoolInfo",
          "name": "_rewardPool",
          "type": "tuple"
        },
        {
          "internalType": "string",
          "name": "_surveyId",
          "type": "string"
        }
      ],
      "name": "setRewardPoolInfo",
      "outputs": [
        {
          "internalType": "bool",
          "name": "",
          "type": "bool"
        }
      ],
      "stateMutability": "payable",
      "type": "function",
      "payable": true
    },
    {
      "inputs": [
        {
          "internalType": "string",
          "name": "_surveyId",
          "type": "string"
        }
      ],
      "name": "getSurveyOwner",
      "outputs": [
        {
          "internalType": "address",
          "name": "",
          "type": "address"
        }
      ],
      "stateMutability": "view",
      "type": "function",
      "constant": true
    },
    {
      "inputs": [
        {
          "internalType": "string",
          "name": "_surveyId",
          "type": "string"
        },
        {
          "internalType": "address",
          "name": "_owner",
          "type": "address"
        }
      ],
      "name": "setSurveyOwner",
      "outputs": [],
      "stateMutability": "nonpayable",
      "type": "function"
    },
    {
      "inputs": [
        {
          "internalType": "string",
          "name": "_surveyId",
          "type": "string"
        }
      ],
      "name": "redeemReward",
      "outputs": [],
      "stateMutability": "nonpayable",
      "type": "function"
    },
    {
      "inputs": [
        {
          "internalType": "string",
          "name": "_surveyId",
          "type": "string"
        },
        {
          "internalType": "uint256",
          "name": "_totalResponses",
          "type": "uint256"
        }
      ],
      "name": "refundRemaining",
      "outputs": [
        {
          "internalType": "bool",
          "name": "",
          "type": "bool"
        }
      ],
      "stateMutability": "payable",
      "type": "function",
      "payable": true
    }
  ],
  "bytecode": "0x608060405234801561001057600080fd5b50610e03806100206000396000f3fe6080604052600436106100705760003560e01c806367101ed91161004e57806367101ed9146101125780637582342d1461014f578063cc16ab3e14610178578063f06a935a146101a157610070565b80630b5ceb78146100755780633bff542e146100b25780635f9cabfe146100e2575b600080fd5b34801561008157600080fd5b5061009c600480360381019061009791906107fd565b6101cc565b6040516100a99190610a57565b60405180910390f35b6100cc60048036038101906100c79190610892565b610214565b6040516100d99190610a72565b60405180910390f35b6100fc60048036038101906100f791906108e6565b610431565b6040516101099190610a72565b60405180910390f35b34801561011e57600080fd5b50610139600480360381019061013491906107fd565b6104f5565b6040516101469190610afb565b60405180910390f35b34801561015b57600080fd5b506101766004803603810190610171919061083e565b610597565b005b34801561018457600080fd5b5061019f600480360381019061019a91906107b8565b6105f8565b005b3480156101ad57600080fd5b506101b66105fc565b6040516101c39190610b16565b60405180910390f35b60006001826040516101de9190610a40565b908152602001604051809103902060009054906101000a900473ffffffffffffffffffffffffffffffffffffffff169050919050565b60008061021f6105fc565b9050600061028a61025a6002876040516102399190610a40565b9081526020016040518091039020600201548661060490919063ffffffff16565b60028760405161026a9190610a40565b90815260200160405180910390206001015461061a90919063ffffffff16565b9050600360009054906101000a900460ff16156102a657600080fd5b6001600360006101000a81548160ff0219169083151502179055506002856040516102d19190610a40565b908152602001604051809103902060000160009054906101000a900473ffffffffffffffffffffffffffffffffffffffff1673ffffffffffffffffffffffffffffffffffffffff166108fc829081150290604051600060405180830381858888f19350505050158015610348573d6000803e3d6000fd5b5060008411156103905761035a6105fc565b821161038f577f4e487b7100000000000000000000000000000000000000000000000000000000600052600160045260246000fd5b5b6000600360006101000a81548160ff0219169083151502179055507f846de4ceaee17b06b413da07289891f99dc2b06f248d49279e4ae4bf01e56074856002876040516103dd9190610a40565b908152602001604051809103902060000160009054906101000a900473ffffffffffffffffffffffffffffffffffffffff1660405161041d929190610a8d565b60405180910390a160019250505092915050565b6000826002836040516104449190610a40565b908152602001604051809103902060008201518160000160006101000a81548173ffffffffffffffffffffffffffffffffffffffff021916908373ffffffffffffffffffffffffffffffffffffffff16021790555060208201518160010155604082015181600201559050507fbdeb5af5a85801827aa1e363626ff1642f4d60ce3dc5e4ca977ea8386f7bc2588233346040516104e393929190610abd565b60405180910390a16001905092915050565b6104fd610630565b60028260405161050d9190610a40565b90815260200160405180910390206040518060600160405290816000820160009054906101000a900473ffffffffffffffffffffffffffffffffffffffff1673ffffffffffffffffffffffffffffffffffffffff1673ffffffffffffffffffffffffffffffffffffffff168152602001600182015481526020016002820154815250509050919050565b806001836040516105a89190610a40565b908152602001604051809103902060006101000a81548173ffffffffffffffffffffffffffffffffffffffff021916908373ffffffffffffffffffffffffffffffffffffffff1602179055505050565b5050565b600047905090565b600081836106129190610bb9565b905092915050565b600081836106289190610c13565b905092915050565b6040518060600160405280600073ffffffffffffffffffffffffffffffffffffffff16815260200160008152602001600081525090565b600061067a61067584610b62565b610b31565b90508281526020810184848401111561069257600080fd5b61069d848285610cd7565b509392505050565b6000813590506106b481610d88565b92915050565b6000813590506106c981610d9f565b92915050565b60008083601f8401126106e157600080fd5b8235905067ffffffffffffffff8111156106fa57600080fd5b60208301915083600182028301111561071257600080fd5b9250929050565b600082601f83011261072a57600080fd5b813561073a848260208601610667565b91505092915050565b60006060828403121561075557600080fd5b61075f6060610b31565b9050600061076f848285016106ba565b6000830152506020610783848285016107a3565b6020830152506040610797848285016107a3565b60408301525092915050565b6000813590506107b281610db6565b92915050565b600080602083850312156107cb57600080fd5b600083013567ffffffffffffffff8111156107e557600080fd5b6107f1858286016106cf565b92509250509250929050565b60006020828403121561080f57600080fd5b600082013567ffffffffffffffff81111561082957600080fd5b61083584828501610719565b91505092915050565b6000806040838503121561085157600080fd5b600083013567ffffffffffffffff81111561086b57600080fd5b61087785828601610719565b9250506020610888858286016106a5565b9150509250929050565b600080604083850312156108a557600080fd5b600083013567ffffffffffffffff8111156108bf57600080fd5b6108cb85828601610719565b92505060206108dc858286016107a3565b9150509250929050565b600080608083850312156108f957600080fd5b600061090785828601610743565b925050606083013567ffffffffffffffff81111561092457600080fd5b61093085828601610719565b9150509250929050565b61094381610ca1565b82525050565b61095281610c59565b82525050565b61096181610c47565b82525050565b61097081610c6b565b82525050565b600061098182610b92565b61098b8185610b9d565b935061099b818560208601610ce6565b6109a481610d77565b840191505092915050565b60006109ba82610b92565b6109c48185610bae565b93506109d4818560208601610ce6565b80840191505092915050565b6060820160008201516109f66000850182610949565b506020820151610a096020850182610a22565b506040820151610a1c6040850182610a22565b50505050565b610a2b81610c97565b82525050565b610a3a81610c97565b82525050565b6000610a4c82846109af565b915081905092915050565b6000602082019050610a6c6000830184610958565b92915050565b6000602082019050610a876000830184610967565b92915050565b60006040820190508181036000830152610aa78185610976565b9050610ab6602083018461093a565b9392505050565b60006060820190508181036000830152610ad78186610976565b9050610ae66020830185610958565b610af36040830184610a31565b949350505050565b6000606082019050610b1060008301846109e0565b92915050565b6000602082019050610b2b6000830184610a31565b92915050565b6000604051905081810181811067ffffffffffffffff82111715610b5857610b57610d48565b5b8060405250919050565b600067ffffffffffffffff821115610b7d57610b7c610d48565b5b601f19601f8301169050602081019050919050565b600081519050919050565b600082825260208201905092915050565b600081905092915050565b6000610bc482610c97565b9150610bcf83610c97565b9250817fffffffffffffffffffffffffffffffffffffffffffffffffffffffffffffffff0483118215151615610c0857610c07610d19565b5b828202905092915050565b6000610c1e82610c97565b9150610c2983610c97565b925082821015610c3c57610c3b610d19565b5b828203905092915050565b6000610c5282610c77565b9050919050565b6000610c6482610c77565b9050919050565b60008115159050919050565b600073ffffffffffffffffffffffffffffffffffffffff82169050919050565b6000819050919050565b6000610cac82610cb3565b9050919050565b6000610cbe82610cc5565b9050919050565b6000610cd082610c77565b9050919050565b82818337600083830152505050565b60005b83811015610d04578082015181840152602081019050610ce9565b83811115610d13576000848401525b50505050565b7f4e487b7100000000000000000000000000000000000000000000000000000000600052601160045260246000fd5b7f4e487b7100000000000000000000000000000000000000000000000000000000600052604160045260246000fd5b6000601f19601f8301169050919050565b610d9181610c47565b8114610d9c57600080fd5b50565b610da881610c59565b8114610db357600080fd5b50565b610dbf81610c97565b8114610dca57600080fd5b5056fea2646970667358221220b360ca4c7450408f1220f8260ad813ce622294b7b3a85e173177c70a7b17d09d64736f6c63430008000033",
  "immutableReferences": {},
  "source": "//SPDX-License-Identifier: Unlicense\npragma solidity 0.8.0;\npragma experimental ABIEncoderV2;         // enabled to encode and decode nested arrays and structs, code will be less optimized\nimport \"@openzeppelin/contracts/utils/math/SafeMath.sol\";\n\n// @title Escrow accounts holding ETH for rewards\n// @author shelly\n// @notice Use this contract for transferring/withdrawing ETH rewards\n// @dev TODO: The contract functions are only executable from Survey Processor contract\ncontract RewardEscrow {\n\n    using SafeMath for uint256;\n\n    // @notice Reward pool belongs to survey creator\n    // @dev if more attributes are needed, update accordingly\n    struct RewardPoolInfo {\n        address payable erc20Address;  // address of ERC20 token contract where the funds are withdrawn from, to distribute as reward \n        uint256 totalRewards;          // amount of ETH allocated for rewarding survey responses\n        uint256 rewardPerResponse;     // ETH reward amount per survey response \n    }\n\n    // @notice Survey processor contract address\n    address payable internal agent;\n\n    // @notice Surveys owned by survey creator\n    mapping (string => address) internal surveyOwners;\n\n    // @notice RewardPoolInfo for each survey id\n    mapping (string => RewardPoolInfo) internal rewardPools;\n\n\n    // @dev using mutual exclusion to prevent re-entrancy attack\n    bool private lockBalances;\n\n\n    /**\n     * Events\n     */\n\n    // @notice Emitted when survey process contract address is set\n    // @param account Survey Process Contract address\n    event LogAssignedAgent(address account);\n\n    // @notice Emitted when survey is created\n    // @param surveyId ID of survey\n    // @param by Survey Creator address\n    event LogSurveyCreated(string surveyId, address by);\n\n    // @notice Emitted when reward in DAI are deposited to RewardEscrow contract address\n    // @param surveyId ID of survey\n    // @param by Survey Creator address \n    // @param amount Total rewards in ETH\n    event LogRewardDeposited(string surveyId, address by, uint256 amount);\n    \n    // @notice Emitted when unused rewards are refunded to Survey Creator\n    // @param surveyId ID of survey\n    // @param to Survey Creator address\n    event LogReturnRemainingCredit(string surveyId, address to);\n    \n    // @notice Emitted when reward pool information is set by Survey Processor Contract\n    // @param surveyId ID of survey\n    // @param from Survey Creator Contract address\n    // @param amount Total rewards in ETH\n    event LogRewardPoolInfoSet(string surveyId, address from, uint256 amount);\n\n    // @notice Emitted when reward pool information is retrieved by Survey Creator\n    // @param surveyId ID of survey\n    // @param surveyCreator Survey Creator address\n    // @param amount Total rewards in ETH\n    event LogRewardPoolInfoGet(string surveyId, address surveyCreator, uint256 amount);\n\n    constructor() {\n    }\n\n    /**\n     * Modifiers\n     */\n    modifier surveyOwnerExists(string memory _surveyId) {\n        require(surveyOwners[_surveyId]!= address(0), \"Survey Owner not found\");\n        _;\n    }\n\n\n    // @notice Total ETH in RewardEscrow contract address escrowed by Survey Creators\n    // @return Balance of ETH in Reward Escrow contract\n    function getEscrowContractBalance() public view returns(uint256) {\n        return address(this).balance;\n    }\n\n    // @notice Retrieve Reward Pool Information of a particular survey\n    // @param _surveyId Survey ID\n    // @return pool Stored RewardPoolInfo struct\n    function getRewardPoolInfo(string memory _surveyId) external view returns(RewardPoolInfo memory)  {\n        return rewardPools[_surveyId];\n    }\n\n    // @notice Save Reward Pool Information belongs to Survey Creator\n    // @param _rewardPool Information of Reward Pool\n    // @param _surveyId Survey ID\n    // @return true When all the steps are executed successfully\n    function setRewardPoolInfo(RewardPoolInfo memory _rewardPool, string memory _surveyId) external payable returns (bool) {\n        rewardPools[_surveyId] = _rewardPool;\n\n        emit LogRewardPoolInfoSet(_surveyId, msg.sender, msg.value);\n        return true;\n    }\n\n    // @notice Retrieve Survey Owner of a particular survey\n    // @param _surveyId Survey ID\n    function getSurveyOwner(string memory _surveyId) external view returns (address) {\n        return surveyOwners[_surveyId];\n    }\n\n    // @notice Assign Survey Owner to Survey ID\n    // @param _surveyId Survey ID\n    function setSurveyOwner(string memory _surveyId, address _owner) public {\n        surveyOwners[_surveyId] = _owner;\n    }\n\n\n\n    // @notice Claim cumulative rewards from surveys taken\n    // @dev TODO: Only Survey Takers can call this function successfully, need to do deletegate call in survey processor\n    // @param _surveyId Survey ID\n    function redeemReward(string calldata _surveyId) external {\n        //TODO\n    }\n\n    // @notice Refund excess ETH, allocated for survey to Survey Owner\n    // @dev TODO: Only Survey Owners can call this function successfully, need to do delegate call in survey processor\n    // @param _surveyId Survey ID\n    // @param _totalResponses Total number of survey responses\n    // @return true if the executions are successful and the end of the function is reached\n    function refundRemaining(string memory _surveyId, uint256 _totalResponses) external payable returns (bool) {\n\n        uint256 escrowContractBalanceBefore = getEscrowContractBalance();\n        uint256 amountToRefund = rewardPools[_surveyId].totalRewards.sub(_totalResponses.mul(rewardPools[_surveyId].rewardPerResponse));\n        \n        require(!lockBalances);\n        lockBalances = true;        \n        \n        payable(rewardPools[_surveyId].erc20Address).transfer(amountToRefund);\n        \n        if (_totalResponses > 0) {\n            // if the transfer to Survey Owner succeeds, ETH balance of Reward Escrow before and after should be different\n            assert(escrowContractBalanceBefore > getEscrowContractBalance());\n        }\n\n        lockBalances = false;        \n\n\n        emit LogReturnRemainingCredit(_surveyId, rewardPools[_surveyId].erc20Address);\n        \n        return true;\n    }\n\n}\n",
  "sourcePath": "/Users/shelly/Documents/BlkC/consensys/blockchain-developer-bootcamp-final-project/contracts/RewardEscrow.sol",
  "compiler": {
    "name": "solc",
    "version": "0.8.0+commit.c7dfd78e.Emscripten.clang"
  },
  "schemaVersion": "3.4.3",
  "updatedAt": "2022-02-06T09:38:26.305Z",
  "networkType": "ethereum",
  "devdoc": {
    "kind": "dev",
    "methods": {},
    "version": 1
  },
  "userdoc": {
    "events": {
      "LogAssignedAgent(address)": {
        "notice": "Events"
      }
    },
    "kind": "user",
    "methods": {},
    "version": 1
  }
}