{
  "contractName": "RewardEscrow",
  "abi": [
    {
      "inputs": [],
      "stateMutability": "nonpayable",
      "type": "constructor"
    },
    {
      "anonymous": false,
      "inputs": [
        {
          "indexed": false,
          "internalType": "address",
          "name": "account",
          "type": "address"
        }
      ],
      "name": "LogAssignedAgent",
      "type": "event"
    },
    {
      "anonymous": false,
      "inputs": [
        {
          "indexed": false,
          "internalType": "string",
          "name": "surveyId",
          "type": "string"
        },
        {
          "indexed": false,
          "internalType": "address",
          "name": "to",
          "type": "address"
        }
      ],
      "name": "LogReturnRemainingCredit",
      "type": "event"
    },
    {
      "anonymous": false,
      "inputs": [
        {
          "indexed": false,
          "internalType": "string",
          "name": "surveyId",
          "type": "string"
        },
        {
          "indexed": false,
          "internalType": "address",
          "name": "by",
          "type": "address"
        },
        {
          "indexed": false,
          "internalType": "uint256",
          "name": "amount",
          "type": "uint256"
        }
      ],
      "name": "LogRewardDeposited",
      "type": "event"
    },
    {
      "anonymous": false,
      "inputs": [
        {
          "indexed": false,
          "internalType": "string",
          "name": "surveyId",
          "type": "string"
        },
        {
          "indexed": false,
          "internalType": "address",
          "name": "surveyCreator",
          "type": "address"
        },
        {
          "indexed": false,
          "internalType": "uint256",
          "name": "amount",
          "type": "uint256"
        }
      ],
      "name": "LogRewardPoolInfoGet",
      "type": "event"
    },
    {
      "anonymous": false,
      "inputs": [
        {
          "indexed": false,
          "internalType": "string",
          "name": "surveyId",
          "type": "string"
        },
        {
          "indexed": false,
          "internalType": "address",
          "name": "from",
          "type": "address"
        },
        {
          "indexed": false,
          "internalType": "uint256",
          "name": "amount",
          "type": "uint256"
        }
      ],
      "name": "LogRewardPoolInfoSet",
      "type": "event"
    },
    {
      "anonymous": false,
      "inputs": [
        {
          "indexed": false,
          "internalType": "string",
          "name": "surveyId",
          "type": "string"
        },
        {
          "indexed": false,
          "internalType": "address",
          "name": "by",
          "type": "address"
        }
      ],
      "name": "LogSurveyCreated",
      "type": "event"
    },
    {
      "inputs": [],
      "name": "getAgent",
      "outputs": [
        {
          "internalType": "address",
          "name": "",
          "type": "address"
        }
      ],
      "stateMutability": "view",
      "type": "function",
      "constant": true
    },
    {
      "inputs": [
        {
          "internalType": "address payable",
          "name": "_address",
          "type": "address"
        }
      ],
      "name": "setAgent",
      "outputs": [],
      "stateMutability": "nonpayable",
      "type": "function"
    },
    {
      "inputs": [],
      "name": "getEscrowContractBalance",
      "outputs": [
        {
          "internalType": "uint256",
          "name": "",
          "type": "uint256"
        }
      ],
      "stateMutability": "view",
      "type": "function",
      "constant": true
    },
    {
      "inputs": [
        {
          "internalType": "string",
          "name": "_surveyId",
          "type": "string"
        }
      ],
      "name": "getRewardPoolInfo",
      "outputs": [
        {
          "components": [
            {
              "internalType": "address payable",
              "name": "erc20Address",
              "type": "address"
            },
            {
              "internalType": "uint256",
              "name": "totalRewards",
              "type": "uint256"
            },
            {
              "internalType": "uint256",
              "name": "rewardPerResponse",
              "type": "uint256"
            }
          ],
          "internalType": "struct RewardEscrow.RewardPoolInfo",
          "name": "",
          "type": "tuple"
        }
      ],
      "stateMutability": "view",
      "type": "function",
      "constant": true
    },
    {
      "inputs": [
        {
          "components": [
            {
              "internalType": "address payable",
              "name": "erc20Address",
              "type": "address"
            },
            {
              "internalType": "uint256",
              "name": "totalRewards",
              "type": "uint256"
            },
            {
              "internalType": "uint256",
              "name": "rewardPerResponse",
              "type": "uint256"
            }
          ],
          "internalType": "struct RewardEscrow.RewardPoolInfo",
          "name": "_rewardPool",
          "type": "tuple"
        },
        {
          "internalType": "string",
          "name": "_surveyId",
          "type": "string"
        }
      ],
      "name": "setRewardPoolInfo",
      "outputs": [
        {
          "internalType": "bool",
          "name": "",
          "type": "bool"
        }
      ],
      "stateMutability": "payable",
      "type": "function",
      "payable": true
    },
    {
      "inputs": [
        {
          "internalType": "string",
          "name": "_surveyId",
          "type": "string"
        }
      ],
      "name": "getSurveyOwner",
      "outputs": [
        {
          "internalType": "address",
          "name": "",
          "type": "address"
        }
      ],
      "stateMutability": "view",
      "type": "function",
      "constant": true
    },
    {
      "inputs": [
        {
          "internalType": "string",
          "name": "_surveyId",
          "type": "string"
        },
        {
          "internalType": "address",
          "name": "_owner",
          "type": "address"
        }
      ],
      "name": "setSurveyOwner",
      "outputs": [],
      "stateMutability": "nonpayable",
      "type": "function"
    },
    {
      "inputs": [
        {
          "internalType": "string",
          "name": "_surveyId",
          "type": "string"
        }
      ],
      "name": "redeemReward",
      "outputs": [],
      "stateMutability": "nonpayable",
      "type": "function"
    },
    {
      "inputs": [
        {
          "internalType": "string",
          "name": "_surveyId",
          "type": "string"
        },
        {
          "internalType": "uint256",
          "name": "_totalResponses",
          "type": "uint256"
        }
      ],
      "name": "refundRemaining",
      "outputs": [
        {
          "internalType": "bool",
          "name": "",
          "type": "bool"
        }
      ],
      "stateMutability": "payable",
      "type": "function",
      "payable": true
    }
  ],
  "bytecode": "0x608060405234801561001057600080fd5b50610eb2806100206000396000f3fe6080604052600436106100865760003560e01c80637582342d116100595780637582342d14610165578063bcf685ed1461018e578063cc16ab3e146101b7578063f06a935a146101e0578063f551eb191461020b57610086565b80630b5ceb781461008b5780633bff542e146100c85780635f9cabfe146100f857806367101ed914610128575b600080fd5b34801561009757600080fd5b506100b260048036038101906100ad91906108ac565b610236565b6040516100bf9190610b06565b60405180910390f35b6100e260048036038101906100dd9190610941565b61027e565b6040516100ef9190610b21565b60405180910390f35b610112600480360381019061010d9190610995565b61044b565b60405161011f9190610b21565b60405180910390f35b34801561013457600080fd5b5061014f600480360381019061014a91906108ac565b61050f565b60405161015c9190610baa565b60405180910390f35b34801561017157600080fd5b5061018c600480360381019061018791906108ed565b6105b1565b005b34801561019a57600080fd5b506101b560048036038101906101b0919061083e565b610612565b005b3480156101c357600080fd5b506101de60048036038101906101d99190610867565b610655565b005b3480156101ec57600080fd5b506101f5610659565b6040516102029190610bc5565b60405180910390f35b34801561021757600080fd5b50610220610661565b60405161022d9190610b06565b60405180910390f35b60006001826040516102489190610aef565b908152602001604051809103902060009054906101000a900473ffffffffffffffffffffffffffffffffffffffff169050919050565b600080610289610659565b905060006102f46102c46002876040516102a39190610aef565b9081526020016040518091039020600201548661068a90919063ffffffff16565b6002876040516102d49190610aef565b9081526020016040518091039020600101546106a090919063ffffffff16565b90506002856040516103069190610aef565b908152602001604051809103902060000160009054906101000a900473ffffffffffffffffffffffffffffffffffffffff1673ffffffffffffffffffffffffffffffffffffffff166108fc829081150290604051600060405180830381858888f1935050505015801561037d573d6000803e3d6000fd5b5060008411156103c55761038f610659565b82116103c4577f4e487b7100000000000000000000000000000000000000000000000000000000600052600160045260246000fd5b5b7f846de4ceaee17b06b413da07289891f99dc2b06f248d49279e4ae4bf01e56074856002876040516103f79190610aef565b908152602001604051809103902060000160009054906101000a900473ffffffffffffffffffffffffffffffffffffffff16604051610437929190610b3c565b60405180910390a160019250505092915050565b60008260028360405161045e9190610aef565b908152602001604051809103902060008201518160000160006101000a81548173ffffffffffffffffffffffffffffffffffffffff021916908373ffffffffffffffffffffffffffffffffffffffff16021790555060208201518160010155604082015181600201559050507fbdeb5af5a85801827aa1e363626ff1642f4d60ce3dc5e4ca977ea8386f7bc2588233346040516104fd93929190610b6c565b60405180910390a16001905092915050565b6105176106b6565b6002826040516105279190610aef565b90815260200160405180910390206040518060600160405290816000820160009054906101000a900473ffffffffffffffffffffffffffffffffffffffff1673ffffffffffffffffffffffffffffffffffffffff1673ffffffffffffffffffffffffffffffffffffffff168152602001600182015481526020016002820154815250509050919050565b806001836040516105c29190610aef565b908152602001604051809103902060006101000a81548173ffffffffffffffffffffffffffffffffffffffff021916908373ffffffffffffffffffffffffffffffffffffffff1602179055505050565b806000806101000a81548173ffffffffffffffffffffffffffffffffffffffff021916908373ffffffffffffffffffffffffffffffffffffffff16021790555050565b5050565b600047905090565b60008060009054906101000a900473ffffffffffffffffffffffffffffffffffffffff16905090565b600081836106989190610c68565b905092915050565b600081836106ae9190610cc2565b905092915050565b6040518060600160405280600073ffffffffffffffffffffffffffffffffffffffff16815260200160008152602001600081525090565b60006107006106fb84610c11565b610be0565b90508281526020810184848401111561071857600080fd5b610723848285610d86565b509392505050565b60008135905061073a81610e37565b92915050565b60008135905061074f81610e4e565b92915050565b60008083601f84011261076757600080fd5b8235905067ffffffffffffffff81111561078057600080fd5b60208301915083600182028301111561079857600080fd5b9250929050565b600082601f8301126107b057600080fd5b81356107c08482602086016106ed565b91505092915050565b6000606082840312156107db57600080fd5b6107e56060610be0565b905060006107f584828501610740565b600083015250602061080984828501610829565b602083015250604061081d84828501610829565b60408301525092915050565b60008135905061083881610e65565b92915050565b60006020828403121561085057600080fd5b600061085e84828501610740565b91505092915050565b6000806020838503121561087a57600080fd5b600083013567ffffffffffffffff81111561089457600080fd5b6108a085828601610755565b92509250509250929050565b6000602082840312156108be57600080fd5b600082013567ffffffffffffffff8111156108d857600080fd5b6108e48482850161079f565b91505092915050565b6000806040838503121561090057600080fd5b600083013567ffffffffffffffff81111561091a57600080fd5b6109268582860161079f565b92505060206109378582860161072b565b9150509250929050565b6000806040838503121561095457600080fd5b600083013567ffffffffffffffff81111561096e57600080fd5b61097a8582860161079f565b925050602061098b85828601610829565b9150509250929050565b600080608083850312156109a857600080fd5b60006109b6858286016107c9565b925050606083013567ffffffffffffffff8111156109d357600080fd5b6109df8582860161079f565b9150509250929050565b6109f281610d50565b82525050565b610a0181610d08565b82525050565b610a1081610cf6565b82525050565b610a1f81610d1a565b82525050565b6000610a3082610c41565b610a3a8185610c4c565b9350610a4a818560208601610d95565b610a5381610e26565b840191505092915050565b6000610a6982610c41565b610a738185610c5d565b9350610a83818560208601610d95565b80840191505092915050565b606082016000820151610aa560008501826109f8565b506020820151610ab86020850182610ad1565b506040820151610acb6040850182610ad1565b50505050565b610ada81610d46565b82525050565b610ae981610d46565b82525050565b6000610afb8284610a5e565b915081905092915050565b6000602082019050610b1b6000830184610a07565b92915050565b6000602082019050610b366000830184610a16565b92915050565b60006040820190508181036000830152610b568185610a25565b9050610b6560208301846109e9565b9392505050565b60006060820190508181036000830152610b868186610a25565b9050610b956020830185610a07565b610ba26040830184610ae0565b949350505050565b6000606082019050610bbf6000830184610a8f565b92915050565b6000602082019050610bda6000830184610ae0565b92915050565b6000604051905081810181811067ffffffffffffffff82111715610c0757610c06610df7565b5b8060405250919050565b600067ffffffffffffffff821115610c2c57610c2b610df7565b5b601f19601f8301169050602081019050919050565b600081519050919050565b600082825260208201905092915050565b600081905092915050565b6000610c7382610d46565b9150610c7e83610d46565b9250817fffffffffffffffffffffffffffffffffffffffffffffffffffffffffffffffff0483118215151615610cb757610cb6610dc8565b5b828202905092915050565b6000610ccd82610d46565b9150610cd883610d46565b925082821015610ceb57610cea610dc8565b5b828203905092915050565b6000610d0182610d26565b9050919050565b6000610d1382610d26565b9050919050565b60008115159050919050565b600073ffffffffffffffffffffffffffffffffffffffff82169050919050565b6000819050919050565b6000610d5b82610d62565b9050919050565b6000610d6d82610d74565b9050919050565b6000610d7f82610d26565b9050919050565b82818337600083830152505050565b60005b83811015610db3578082015181840152602081019050610d98565b83811115610dc2576000848401525b50505050565b7f4e487b7100000000000000000000000000000000000000000000000000000000600052601160045260246000fd5b7f4e487b7100000000000000000000000000000000000000000000000000000000600052604160045260246000fd5b6000601f19601f8301169050919050565b610e4081610cf6565b8114610e4b57600080fd5b50565b610e5781610d08565b8114610e6257600080fd5b50565b610e6e81610d46565b8114610e7957600080fd5b5056fea2646970667358221220d1ca45678d05c07ecf5a21845ff4943bd80df3b9a1e503575d1684d006fca1db64736f6c63430008000033",
  "immutableReferences": {},
  "source": "//SPDX-License-Identifier: Unlicense\npragma solidity >=0.5.16 <0.9.0;\npragma experimental ABIEncoderV2;         // enabled to encode and decode nested arrays and structs, code will be less optimized\nimport \"@openzeppelin/contracts/utils/math/SafeMath.sol\";\n\n\ncontract RewardEscrow {\n\n    using SafeMath for uint256;\n\n    // @notice Reward pool belongs to survey creator\n    // @dev if more attributes are needed, update accordingly\n    struct RewardPoolInfo {\n        address payable erc20Address;       // address of ERC20 token contract where the funds are withdrawn from to distribute as reward \n        uint256 totalRewards;          // amount of ETH allocated for rewarding survey responses\n        uint256 rewardPerResponse;     // ETH reward amount per survey response \n    }\n\n    // @notice Survey processor contract address\n    address payable internal agent;\n\n    // @notice Surveys owned by survey creator\n    // mapping (address => string[]) internal surveyOwners;\n\n    // @notice Surveys owned by survey creator\n    mapping (string => address) internal surveyOwners;\n\n    // @notice RewardPoolInfo for each survey id\n    mapping (string => RewardPoolInfo) internal rewardPools;\n\n    /**\n     * Events\n     */\n\n    // @notice Emitted when survey process contract address is set\n    // @param account Survey Process Contract address\n    event LogAssignedAgent(address account);\n\n    // @notice Emitted when survey is created\n    // @param surveyId CID of survey\n    // @param by Survey Creator address\n    event LogSurveyCreated(string surveyId, address by);\n\n    // @notice Emitted when reward in DAI are deposited to RewardEscrow contract address\n    // @param surveyId CID of survey\n    // @param by Survey Creator address \n    // @param amount Total rewards in DAI\n    event LogRewardDeposited(string surveyId, address by, uint256 amount);\n    \n    // @notice Emitted when unused rewards are refunded to Survey Creator\n    // @param surveyId Survey Process Contract address\n    // @param to Survey Creator address\n    event LogReturnRemainingCredit(string surveyId, address to);\n    \n    // @notice Emitted when reward pool information is set by Survey Processor Contract\n    // @param surveyId Survey Process Contract address\n    // @param from Survey Creator Contract address\n    // @param amount Total rewards in DAI\n    event LogRewardPoolInfoSet(string surveyId, address from, uint256 amount);\n\n    // @notice Emitted when reward pool information is retrieved by Survey Creator\n    // @param surveyId Survey Process Contract address\n    // @param surveyCreator Survey Creator address\n    // @param amount Total rewards\n    event LogRewardPoolInfoGet(string surveyId, address surveyCreator, uint256 amount);\n\n    constructor() {\n    }\n\n    /**\n     * Modifiers\n     */\n\n    modifier onlyAgent() {\n        require(msg.sender == agent, \"Not Agent\");\n        _;\n    }\n\n    modifier surveyOwnerExists(string memory _surveyId) {\n        require(surveyOwners[_surveyId]!= address(0), \"Survey Owner not found\");\n        _;\n    }\n\n    // @notice Retrieve address of Survey Processor Contract\n    // @return agent Address of the Survey Processor Contract\n    function getAgent() public view returns(address) {\n        return agent;\n    }\n\n    // @notice Assign Survey Processor Contract address to agent\n    // @dev Only Survey Processor will have permission\n    // @param _address Survey Processor Contract address\n    function setAgent(address payable _address) public {\n        agent = _address;\n    }\n\n    // @notice Total ETH in RewardEscrow contract address escrowed by Survey Creators\n    // @return Balance of ETH in Reward Escrow contract\n    function getEscrowContractBalance() public view returns(uint256) {\n        return address(this).balance;\n    }\n\n    // @notice Retrieve Reward Pool Information of a particular survey\n    // @param _surveyId Survey ID\n    // @return pool Stored RewardPoolInfo struct\n    function getRewardPoolInfo(string memory _surveyId) external view returns(RewardPoolInfo memory)  {\n        return rewardPools[_surveyId];\n    }\n\n    // @notice Save Reward Pool Information belongs to Survey Creator\n    // @param _rewardPool Information of Reward Pool\n    // @param _surveyId Survey ID\n    // @return true When all the steps are executed successfully\n    function setRewardPoolInfo(RewardPoolInfo memory _rewardPool, string memory _surveyId) external payable returns (bool) {\n        rewardPools[_surveyId] = _rewardPool;\n\n        emit LogRewardPoolInfoSet(_surveyId, msg.sender, msg.value);\n        return true;\n    }\n\n    // @notice Retrieve Survey Owner of a particular survey\n    // @param _surveyId Survey ID\n    function getSurveyOwner(string memory _surveyId) external view returns (address) {\n        return surveyOwners[_surveyId];\n    }\n\n    function setSurveyOwner(string memory _surveyId, address _owner) public {\n        surveyOwners[_surveyId] = _owner;\n    }\n\n\n\n    // @notice Claim cumulative rewards from surveys taken\n    // @dev TODO: Only Survey Takers can call this function successfully, need to do deletegate call in survey processor\n    // @param _surveyId Survey ID\n    function redeemReward(string calldata _surveyId) external {\n        //TODO\n    }\n\n    // @notice Refund excess ETH, allocated for survey to Survey Owner\n    // @dev TODO: Only Survey Owners can call this function successfully, need to do delegate call in survey processor\n    // @param _surveyId Survey ID\n    // @param _totalResponses Total number of survey responses\n    // @return true if the executions are successful and the end of the function is reached\n    function refundRemaining(string memory _surveyId, uint256 _totalResponses) external payable returns (bool) {\n\n        uint256 escrowContractBalanceBefore = getEscrowContractBalance();\n        uint256 amountToRefund = rewardPools[_surveyId].totalRewards.sub(_totalResponses.mul(rewardPools[_surveyId].rewardPerResponse));\n        payable(rewardPools[_surveyId].erc20Address).transfer(amountToRefund);\n        \n        if (_totalResponses > 0) {\n            // if the transfer to Survey Owner succeeds, ETH balance of Reward Escrow before and after should be different\n            assert(escrowContractBalanceBefore > getEscrowContractBalance());\n        }\n\n        emit LogReturnRemainingCredit(_surveyId, rewardPools[_surveyId].erc20Address);\n        \n        return true;\n    }\n\n}\n",
  "sourcePath": "/Users/shelly/Documents/BlkC/consensys/blockchain-developer-bootcamp-final-project/contracts/RewardEscrow.sol",
  "compiler": {
    "name": "solc",
    "version": "0.8.0+commit.c7dfd78e.Emscripten.clang"
  },
  "schemaVersion": "3.4.3",
  "updatedAt": "2022-01-16T04:55:50.437Z",
  "networkType": "ethereum",
  "devdoc": {
    "kind": "dev",
    "methods": {},
    "version": 1
  },
  "userdoc": {
    "events": {
      "LogAssignedAgent(address)": {
        "notice": "Events"
      }
    },
    "kind": "user",
    "methods": {},
    "version": 1
  }
}