{
  "contractName": "SurveyProcessor",
  "abi": [
    {
      "inputs": [
        {
          "internalType": "address payable",
          "name": "_escrowAddress",
          "type": "address"
        }
      ],
      "stateMutability": "nonpayable",
      "type": "constructor"
    },
    {
      "anonymous": false,
      "inputs": [
        {
          "indexed": false,
          "internalType": "address",
          "name": "account",
          "type": "address"
        }
      ],
      "name": "LogAssignedAgent",
      "type": "event"
    },
    {
      "anonymous": false,
      "inputs": [
        {
          "indexed": false,
          "internalType": "string",
          "name": "surveyId",
          "type": "string"
        },
        {
          "indexed": false,
          "internalType": "uint256",
          "name": "amountDeducted",
          "type": "uint256"
        }
      ],
      "name": "LogDeductBalanceFromPool",
      "type": "event"
    },
    {
      "anonymous": false,
      "inputs": [
        {
          "indexed": false,
          "internalType": "string",
          "name": "surveyId",
          "type": "string"
        },
        {
          "indexed": false,
          "internalType": "address",
          "name": "to",
          "type": "address"
        }
      ],
      "name": "LogReturnRemainingCredit",
      "type": "event"
    },
    {
      "anonymous": false,
      "inputs": [
        {
          "indexed": false,
          "internalType": "string",
          "name": "surveyId",
          "type": "string"
        },
        {
          "indexed": false,
          "internalType": "address",
          "name": "by",
          "type": "address"
        },
        {
          "indexed": false,
          "internalType": "uint256",
          "name": "amount",
          "type": "uint256"
        }
      ],
      "name": "LogRewardDeposited",
      "type": "event"
    },
    {
      "anonymous": false,
      "inputs": [
        {
          "indexed": false,
          "internalType": "string",
          "name": "surveyId",
          "type": "string"
        },
        {
          "indexed": false,
          "internalType": "address",
          "name": "surveyCreator",
          "type": "address"
        },
        {
          "indexed": false,
          "internalType": "uint256",
          "name": "amount",
          "type": "uint256"
        }
      ],
      "name": "LogRewardPoolInfoGet",
      "type": "event"
    },
    {
      "anonymous": false,
      "inputs": [
        {
          "indexed": false,
          "internalType": "string",
          "name": "surveyId",
          "type": "string"
        },
        {
          "indexed": false,
          "internalType": "address",
          "name": "from",
          "type": "address"
        },
        {
          "indexed": false,
          "internalType": "uint256",
          "name": "amount",
          "type": "uint256"
        }
      ],
      "name": "LogRewardPoolInfoSet",
      "type": "event"
    },
    {
      "anonymous": false,
      "inputs": [
        {
          "indexed": false,
          "internalType": "address",
          "name": "surveyOwner",
          "type": "address"
        },
        {
          "indexed": false,
          "internalType": "uint256",
          "name": "amount",
          "type": "uint256"
        }
      ],
      "name": "LogRewardTransferToEscrow",
      "type": "event"
    },
    {
      "anonymous": false,
      "inputs": [
        {
          "indexed": false,
          "internalType": "string",
          "name": "surveyId",
          "type": "string"
        },
        {
          "indexed": false,
          "internalType": "address",
          "name": "by",
          "type": "address"
        }
      ],
      "name": "LogSurveyCreated",
      "type": "event"
    },
    {
      "anonymous": false,
      "inputs": [
        {
          "indexed": false,
          "internalType": "address",
          "name": "surveyOwner",
          "type": "address"
        },
        {
          "indexed": false,
          "internalType": "string",
          "name": "surveyId",
          "type": "string"
        }
      ],
      "name": "LogSurveyRegistered",
      "type": "event"
    },
    {
      "anonymous": false,
      "inputs": [
        {
          "indexed": false,
          "internalType": "address",
          "name": "surveyOwner",
          "type": "address"
        },
        {
          "indexed": false,
          "internalType": "string",
          "name": "surveyId",
          "type": "string"
        }
      ],
      "name": "LogSurveyRemoved",
      "type": "event"
    },
    {
      "anonymous": false,
      "inputs": [
        {
          "indexed": false,
          "internalType": "address",
          "name": "respondent",
          "type": "address"
        },
        {
          "indexed": false,
          "internalType": "string",
          "name": "surveyId",
          "type": "string"
        }
      ],
      "name": "LogSurveyResponseExists",
      "type": "event"
    },
    {
      "anonymous": false,
      "inputs": [
        {
          "indexed": false,
          "internalType": "address",
          "name": "respondent",
          "type": "address"
        },
        {
          "indexed": false,
          "internalType": "string",
          "name": "surveyId",
          "type": "string"
        },
        {
          "indexed": false,
          "internalType": "uint256",
          "name": "totalResponses",
          "type": "uint256"
        }
      ],
      "name": "LogSurveyResponseSubmitted",
      "type": "event"
    },
    {
      "inputs": [],
      "name": "getAgent",
      "outputs": [
        {
          "internalType": "address",
          "name": "",
          "type": "address"
        }
      ],
      "stateMutability": "view",
      "type": "function",
      "constant": true
    },
    {
      "inputs": [],
      "name": "getEscrowContractBalance",
      "outputs": [
        {
          "internalType": "uint256",
          "name": "",
          "type": "uint256"
        }
      ],
      "stateMutability": "view",
      "type": "function",
      "constant": true
    },
    {
      "inputs": [
        {
          "internalType": "string",
          "name": "_surveyId",
          "type": "string"
        }
      ],
      "name": "getRewardPoolInfo",
      "outputs": [
        {
          "components": [
            {
              "internalType": "address payable",
              "name": "erc20Address",
              "type": "address"
            },
            {
              "internalType": "uint256",
              "name": "totalRewards",
              "type": "uint256"
            },
            {
              "internalType": "uint256",
              "name": "rewardPerResponse",
              "type": "uint256"
            }
          ],
          "internalType": "struct RewardEscrow.RewardPoolInfo",
          "name": "",
          "type": "tuple"
        }
      ],
      "stateMutability": "view",
      "type": "function",
      "constant": true
    },
    {
      "inputs": [
        {
          "internalType": "string",
          "name": "_surveyId",
          "type": "string"
        }
      ],
      "name": "getSurveyOwner",
      "outputs": [
        {
          "internalType": "address",
          "name": "",
          "type": "address"
        }
      ],
      "stateMutability": "view",
      "type": "function",
      "constant": true
    },
    {
      "inputs": [
        {
          "internalType": "string",
          "name": "_surveyId",
          "type": "string"
        }
      ],
      "name": "redeemReward",
      "outputs": [],
      "stateMutability": "nonpayable",
      "type": "function"
    },
    {
      "inputs": [
        {
          "internalType": "string",
          "name": "_surveyId",
          "type": "string"
        },
        {
          "internalType": "uint256",
          "name": "_totalResponses",
          "type": "uint256"
        }
      ],
      "name": "refundRemaining",
      "outputs": [
        {
          "internalType": "bool",
          "name": "",
          "type": "bool"
        }
      ],
      "stateMutability": "payable",
      "type": "function",
      "payable": true
    },
    {
      "inputs": [
        {
          "internalType": "address payable",
          "name": "_address",
          "type": "address"
        }
      ],
      "name": "setAgent",
      "outputs": [],
      "stateMutability": "nonpayable",
      "type": "function"
    },
    {
      "inputs": [
        {
          "components": [
            {
              "internalType": "address payable",
              "name": "erc20Address",
              "type": "address"
            },
            {
              "internalType": "uint256",
              "name": "totalRewards",
              "type": "uint256"
            },
            {
              "internalType": "uint256",
              "name": "rewardPerResponse",
              "type": "uint256"
            }
          ],
          "internalType": "struct RewardEscrow.RewardPoolInfo",
          "name": "_rewardPool",
          "type": "tuple"
        },
        {
          "internalType": "string",
          "name": "_surveyId",
          "type": "string"
        }
      ],
      "name": "setRewardPoolInfo",
      "outputs": [
        {
          "internalType": "bool",
          "name": "",
          "type": "bool"
        }
      ],
      "stateMutability": "payable",
      "type": "function",
      "payable": true
    },
    {
      "inputs": [
        {
          "internalType": "string",
          "name": "_surveyId",
          "type": "string"
        },
        {
          "internalType": "address",
          "name": "_owner",
          "type": "address"
        }
      ],
      "name": "setSurveyOwner",
      "outputs": [],
      "stateMutability": "nonpayable",
      "type": "function"
    },
    {
      "inputs": [
        {
          "internalType": "address payable",
          "name": "_address",
          "type": "address"
        }
      ],
      "name": "setEscrowAddress",
      "outputs": [],
      "stateMutability": "nonpayable",
      "type": "function"
    },
    {
      "inputs": [],
      "name": "getEscrowAddress",
      "outputs": [
        {
          "internalType": "address",
          "name": "",
          "type": "address"
        }
      ],
      "stateMutability": "view",
      "type": "function",
      "constant": true
    },
    {
      "inputs": [
        {
          "internalType": "address payable",
          "name": "_address",
          "type": "address"
        }
      ],
      "name": "setSurveyProcessorAddress",
      "outputs": [],
      "stateMutability": "nonpayable",
      "type": "function"
    },
    {
      "inputs": [
        {
          "internalType": "string",
          "name": "_surveyId",
          "type": "string"
        },
        {
          "internalType": "address",
          "name": "_surveyOwner",
          "type": "address"
        }
      ],
      "name": "checkSurveyIdExists",
      "outputs": [
        {
          "internalType": "bool",
          "name": "",
          "type": "bool"
        }
      ],
      "stateMutability": "view",
      "type": "function",
      "constant": true
    },
    {
      "inputs": [
        {
          "internalType": "string",
          "name": "_surveyId",
          "type": "string"
        },
        {
          "internalType": "uint256",
          "name": "_totalRewards",
          "type": "uint256"
        },
        {
          "internalType": "uint256",
          "name": "_reward",
          "type": "uint256"
        },
        {
          "internalType": "uint256",
          "name": "_closingDate",
          "type": "uint256"
        }
      ],
      "name": "registerSurvey",
      "outputs": [],
      "stateMutability": "payable",
      "type": "function",
      "payable": true
    },
    {
      "inputs": [
        {
          "components": [
            {
              "internalType": "address payable",
              "name": "erc20Address",
              "type": "address"
            },
            {
              "internalType": "uint256",
              "name": "totalRewards",
              "type": "uint256"
            },
            {
              "internalType": "uint256",
              "name": "rewardPerResponse",
              "type": "uint256"
            }
          ],
          "internalType": "struct RewardEscrow.RewardPoolInfo",
          "name": "_rewardPool",
          "type": "tuple"
        },
        {
          "internalType": "string",
          "name": "_surveyId",
          "type": "string"
        }
      ],
      "name": "_deposit",
      "outputs": [
        {
          "internalType": "bool",
          "name": "",
          "type": "bool"
        }
      ],
      "stateMutability": "payable",
      "type": "function",
      "payable": true
    },
    {
      "inputs": [
        {
          "internalType": "string",
          "name": "_surveyId",
          "type": "string"
        }
      ],
      "name": "getOwnerAddressOfSurvey",
      "outputs": [
        {
          "internalType": "address",
          "name": "",
          "type": "address"
        }
      ],
      "stateMutability": "view",
      "type": "function",
      "constant": true
    },
    {
      "inputs": [
        {
          "internalType": "string",
          "name": "_surveyId",
          "type": "string"
        }
      ],
      "name": "getTotalDistributableRewardsOfSurvey",
      "outputs": [
        {
          "internalType": "uint256",
          "name": "",
          "type": "uint256"
        }
      ],
      "stateMutability": "view",
      "type": "function",
      "constant": true
    },
    {
      "inputs": [
        {
          "internalType": "string",
          "name": "_surveyId",
          "type": "string"
        }
      ],
      "name": "getRewardPerResponseOfSurvey",
      "outputs": [
        {
          "internalType": "uint256",
          "name": "",
          "type": "uint256"
        }
      ],
      "stateMutability": "view",
      "type": "function",
      "constant": true
    },
    {
      "inputs": [
        {
          "internalType": "string",
          "name": "_surveyId",
          "type": "string"
        }
      ],
      "name": "refundOnSurveyClosed",
      "outputs": [],
      "stateMutability": "nonpayable",
      "type": "function"
    },
    {
      "inputs": [
        {
          "internalType": "string",
          "name": "_surveyId",
          "type": "string"
        },
        {
          "internalType": "string",
          "name": "_responseMetadata",
          "type": "string"
        }
      ],
      "name": "answerSurvey",
      "outputs": [],
      "stateMutability": "nonpayable",
      "type": "function"
    }
  ],
  "bytecode": "0x60806040523480156200001157600080fd5b506040516200290e3803806200290e833981810160405281019062000037919062000096565b80600360006101000a81548173ffffffffffffffffffffffffffffffffffffffff021916908373ffffffffffffffffffffffffffffffffffffffff1602179055505062000110565b6000815190506200009081620000f6565b92915050565b600060208284031215620000a957600080fd5b6000620000b9848285016200007f565b91505092915050565b6000620000cf82620000d6565b9050919050565b600073ffffffffffffffffffffffffffffffffffffffff82169050919050565b6200010181620000c2565b81146200010d57600080fd5b50565b6127ee80620001206000396000f3fe60806040526004361061011f5760003560e01c80639c3d0573116100a0578063dae2e53e11610064578063dae2e53e146103f2578063ddeb63b51461042f578063f06a935a14610458578063f2ea233314610483578063f551eb19146104b35761011f565b80639c3d05731461031e578063bcf685ed1461035b578063c5b4471214610384578063c8d5995d146103ad578063cc16ab3e146103c95761011f565b806367101ed9116100e757806367101ed91461021557806367b257fa14610252578063686210531461028f5780637582342d146102cc57806381911894146102f55761011f565b80630b5ceb7814610124578063122fd48a1461016157806326c7a4c21461018c5780633bff542e146101b55780635f9cabfe146101e5575b600080fd5b34801561013057600080fd5b5061014b60048036038101906101469190611c0b565b6104de565b6040516101589190612150565b60405180910390f35b34801561016d57600080fd5b50610176610526565b6040516101839190612150565b60405180910390f35b34801561019857600080fd5b506101b360048036038101906101ae9190611c0b565b610550565b005b6101cf60048036038101906101ca9190611d0c565b610936565b6040516101dc919061221d565b60405180910390f35b6101ff60048036038101906101fa9190611e04565b610b03565b60405161020c919061221d565b60405180910390f35b34801561022157600080fd5b5061023c60048036038101906102379190611c0b565b610bc7565b60405161024991906123e8565b60405180910390f35b34801561025e57600080fd5b5061027960048036038101906102749190611c0b565b610c69565b6040516102869190612433565b60405180910390f35b34801561029b57600080fd5b506102b660048036038101906102b19190611c4c565b610d21565b6040516102c3919061221d565b60405180910390f35b3480156102d857600080fd5b506102f360048036038101906102ee9190611c4c565b610da9565b005b34801561030157600080fd5b5061031c60048036038101906103179190611b74565b610e0a565b005b34801561032a57600080fd5b5061034560048036038101906103409190611c0b565b610e9a565b6040516103529190612150565b60405180910390f35b34801561036757600080fd5b50610382600480360381019061037d9190611b74565b610f52565b005b34801561039057600080fd5b506103ab60048036038101906103a69190611ca0565b610f95565b005b6103c760048036038101906103c29190611d60565b6112e6565b005b3480156103d557600080fd5b506103f060048036038101906103eb9190611bc6565b6115c2565b005b3480156103fe57600080fd5b5061041960048036038101906104149190611c0b565b6115c6565b6040516104269190612433565b60405180910390f35b34801561043b57600080fd5b5061045660048036038101906104519190611b74565b61167e565b005b34801561046457600080fd5b5061046d6116c2565b60405161047a9190612433565b60405180910390f35b61049d60048036038101906104989190611e04565b6116ca565b6040516104aa919061221d565b60405180910390f35b3480156104bf57600080fd5b506104c86117d7565b6040516104d59190612150565b60405180910390f35b60006001826040516104f09190612139565b908152602001604051809103902060009054906101000a900473ffffffffffffffffffffffffffffffffffffffff169050919050565b6000600360009054906101000a900473ffffffffffffffffffffffffffffffffffffffff16905090565b803373ffffffffffffffffffffffffffffffffffffffff16600360009054906101000a900473ffffffffffffffffffffffffffffffffffffffff1673ffffffffffffffffffffffffffffffffffffffff16630b5ceb78836040518263ffffffff1660e01b81526004016105c39190612238565b60206040518083038186803b1580156105db57600080fd5b505afa1580156105ef573d6000803e3d6000fd5b505050506040513d601f19601f820116820180604052508101906106139190611b4b565b73ffffffffffffffffffffffffffffffffffffffff1614610669576040517f08c379a000000000000000000000000000000000000000000000000000000000815260040161066090612348565b60405180910390fd5b600073ffffffffffffffffffffffffffffffffffffffff16600360009054906101000a900473ffffffffffffffffffffffffffffffffffffffff1673ffffffffffffffffffffffffffffffffffffffff1614156106c557600080fd5b816004816040516106d69190612139565b908152602001604051809103902060003373ffffffffffffffffffffffffffffffffffffffff1673ffffffffffffffffffffffffffffffffffffffff16815260200190815260200160002060010154421015610767576040517f08c379a000000000000000000000000000000000000000000000000000000000815260040161075e90612328565b60405180910390fd5b60006005846040516107799190612139565b90815260200160405180910390206000015490506000600360009054906101000a900473ffffffffffffffffffffffffffffffffffffffff1673ffffffffffffffffffffffffffffffffffffffff16633bff542e86846040518363ffffffff1660e01b81526004016107ec9291906122f8565b602060405180830381600087803b15801561080657600080fd5b505af115801561081a573d6000803e3d6000fd5b505050506040513d601f19601f8201168201806040525081019061083e9190611b9d565b905080610880576040517f08c379a0000000000000000000000000000000000000000000000000000000008152600401610877906123c8565b60405180910390fd5b6004856040516108909190612139565b908152602001604051809103902060003373ffffffffffffffffffffffffffffffffffffffff1673ffffffffffffffffffffffffffffffffffffffff168152602001908152602001600020600080820160006108ec919061182c565b600182016000905550507fb3e6aeafa039af57c0300cb66115ba01f83a3f45b62a3e438e9645ba21018f413386604051610927929190612186565b60405180910390a15050505050565b6000806109416116c2565b905060006109ac61097c60028760405161095b9190612139565b9081526020016040518091039020600201548661180090919063ffffffff16565b60028760405161098c9190612139565b90815260200160405180910390206001015461181690919063ffffffff16565b90506002856040516109be9190612139565b908152602001604051809103902060000160009054906101000a900473ffffffffffffffffffffffffffffffffffffffff1673ffffffffffffffffffffffffffffffffffffffff166108fc829081150290604051600060405180830381858888f19350505050158015610a35573d6000803e3d6000fd5b506000841115610a7d57610a476116c2565b8211610a7c577f4e487b7100000000000000000000000000000000000000000000000000000000600052600160045260246000fd5b5b7f846de4ceaee17b06b413da07289891f99dc2b06f248d49279e4ae4bf01e5607485600287604051610aaf9190612139565b908152602001604051809103902060000160009054906101000a900473ffffffffffffffffffffffffffffffffffffffff16604051610aef92919061228a565b60405180910390a160019250505092915050565b600082600283604051610b169190612139565b908152602001604051809103902060008201518160000160006101000a81548173ffffffffffffffffffffffffffffffffffffffff021916908373ffffffffffffffffffffffffffffffffffffffff16021790555060208201518160010155604082015181600201559050507fbdeb5af5a85801827aa1e363626ff1642f4d60ce3dc5e4ca977ea8386f7bc258823334604051610bb5939291906122ba565b60405180910390a16001905092915050565b610bcf61186c565b600282604051610bdf9190612139565b90815260200160405180910390206040518060600160405290816000820160009054906101000a900473ffffffffffffffffffffffffffffffffffffffff1673ffffffffffffffffffffffffffffffffffffffff1673ffffffffffffffffffffffffffffffffffffffff168152602001600182015481526020016002820154815250509050919050565b6000600360009054906101000a900473ffffffffffffffffffffffffffffffffffffffff1673ffffffffffffffffffffffffffffffffffffffff166367101ed9836040518263ffffffff1660e01b8152600401610cc69190612238565b60606040518083038186803b158015610cde57600080fd5b505afa158015610cf2573d6000803e3d6000fd5b505050506040513d601f19601f82011682018060405250810190610d169190611ddb565b602001519050919050565b600080600484604051610d349190612139565b908152602001604051809103902060008473ffffffffffffffffffffffffffffffffffffffff1673ffffffffffffffffffffffffffffffffffffffff1681526020019081526020016000206000018054610d8d9061268c565b90501115610d9e5760019050610da3565b600090505b92915050565b80600183604051610dba9190612139565b908152602001604051809103902060006101000a81548173ffffffffffffffffffffffffffffffffffffffff021916908373ffffffffffffffffffffffffffffffffffffffff1602179055505050565b600360009054906101000a900473ffffffffffffffffffffffffffffffffffffffff1673ffffffffffffffffffffffffffffffffffffffff1663bcf685ed826040518263ffffffff1660e01b8152600401610e65919061216b565b600060405180830381600087803b158015610e7f57600080fd5b505af1158015610e93573d6000803e3d6000fd5b5050505050565b6000600360009054906101000a900473ffffffffffffffffffffffffffffffffffffffff1673ffffffffffffffffffffffffffffffffffffffff166367101ed9836040518263ffffffff1660e01b8152600401610ef79190612238565b60606040518083038186803b158015610f0f57600080fd5b505afa158015610f23573d6000803e3d6000fd5b505050506040513d601f19601f82011682018060405250810190610f479190611ddb565b600001519050919050565b806000806101000a81548173ffffffffffffffffffffffffffffffffffffffff021916908373ffffffffffffffffffffffffffffffffffffffff16021790555050565b813373ffffffffffffffffffffffffffffffffffffffff16600360009054906101000a900473ffffffffffffffffffffffffffffffffffffffff1673ffffffffffffffffffffffffffffffffffffffff16630b5ceb78836040518263ffffffff1660e01b81526004016110089190612238565b60206040518083038186803b15801561102057600080fd5b505afa158015611034573d6000803e3d6000fd5b505050506040513d601f19601f820116820180604052508101906110589190611b4b565b73ffffffffffffffffffffffffffffffffffffffff1614156110af576040517f08c379a00000000000000000000000000000000000000000000000000000000081526004016110a690612368565b60405180910390fd5b600073ffffffffffffffffffffffffffffffffffffffff16600360009054906101000a900473ffffffffffffffffffffffffffffffffffffffff1673ffffffffffffffffffffffffffffffffffffffff16141561110b57600080fd5b600060405180604001604052803373ffffffffffffffffffffffffffffffffffffffff168152602001848152509050600060058560405161114c9190612139565b9081526020016040518091039020600001549050600060018261116f91906124d6565b905061117a86610c69565b611195611186886115c6565b8361180090919063ffffffff16565b1061119f57600080fd5b6001826111ac91906124d6565b6005876040516111bc9190612139565b9081526020016040518091039020600001819055506005866040516111e19190612139565b908152602001604051809103902060010183908060018154018082558091505060019003906000526020600020906002020160009091909190915060008201518160000160006101000a81548173ffffffffffffffffffffffffffffffffffffffff021916908373ffffffffffffffffffffffffffffffffffffffff160217905550602082015181600101908051906020019061127f9291906118a3565b5050507f1750fa6c21835d87c9ac0fb641b6246ab484a75df6daf89c4b5816c72717955233876005896040516112b59190612139565b9081526020016040518091039020600001546040516112d6939291906121b6565b60405180910390a1505050505050565b600073ffffffffffffffffffffffffffffffffffffffff16600360009054906101000a900473ffffffffffffffffffffffffffffffffffffffff1673ffffffffffffffffffffffffffffffffffffffff16141561134257600080fd5b8280341015611386576040517f08c379a000000000000000000000000000000000000000000000000000000000815260040161137d906123a8565b60405180910390fd5b82600081116113ca576040517f08c379a00000000000000000000000000000000000000000000000000000000081526004016113c190612388565b60405180910390fd5b600060405180606001604052803373ffffffffffffffffffffffffffffffffffffffff168152602001878152602001868152509050600060405180604001604052808981526020018681525090506000611424838a6116ca565b90508061143057600080fd5b7fde776a52192982e980e9185a71162ece107da9c9f86b4bbcb681d09e14d1bfc733896040516114619291906121f4565b60405180910390a18160048a60405161147a9190612139565b908152602001604051809103902060003373ffffffffffffffffffffffffffffffffffffffff1673ffffffffffffffffffffffffffffffffffffffff16815260200190815260200160002060008201518160000190805190602001906114e19291906118a3565b5060208201518160010155905050600360009054906101000a900473ffffffffffffffffffffffffffffffffffffffff1673ffffffffffffffffffffffffffffffffffffffff16637582342d8a336040518363ffffffff1660e01b815260040161154c92919061225a565b600060405180830381600087803b15801561156657600080fd5b505af115801561157a573d6000803e3d6000fd5b505050507f1804f3cf550bab2fa7ff489b5cf05af6ebab8c668da7e7c94653597450279448338a6040516115af929190612186565b60405180910390a1505050505050505050565b5050565b6000600360009054906101000a900473ffffffffffffffffffffffffffffffffffffffff1673ffffffffffffffffffffffffffffffffffffffff166367101ed9836040518263ffffffff1660e01b81526004016116239190612238565b60606040518083038186803b15801561163b57600080fd5b505afa15801561164f573d6000803e3d6000fd5b505050506040513d601f19601f820116820180604052508101906116739190611ddb565b604001519050919050565b80600360006101000a81548173ffffffffffffffffffffffffffffffffffffffff021916908373ffffffffffffffffffffffffffffffffffffffff16021790555050565b600047905090565b6000826020015180341015611714576040517f08c379a000000000000000000000000000000000000000000000000000000000815260040161170b906123a8565b60405180910390fd5b6000600360009054906101000a900473ffffffffffffffffffffffffffffffffffffffff1690508073ffffffffffffffffffffffffffffffffffffffff16635f9cabfe866020015187876040518463ffffffff1660e01b815260040161177b929190612403565b6020604051808303818588803b15801561179457600080fd5b505af11580156117a8573d6000803e3d6000fd5b50505050506040513d601f19601f820116820180604052508101906117cd9190611b9d565b9250505092915050565b60008060009054906101000a900473ffffffffffffffffffffffffffffffffffffffff16905090565b6000818361180e919061252c565b905092915050565b600081836118249190612586565b905092915050565b5080546118389061268c565b6000825580601f1061184a5750611869565b601f0160209004906000526020600020908101906118689190611929565b5b50565b6040518060600160405280600073ffffffffffffffffffffffffffffffffffffffff16815260200160008152602001600081525090565b8280546118af9061268c565b90600052602060002090601f0160209004810192826118d15760008555611918565b82601f106118ea57805160ff1916838001178555611918565b82800160010185558215611918579182015b828111156119175782518255916020019190600101906118fc565b5b5090506119259190611929565b5090565b5b8082111561194257600081600090555060010161192a565b5090565b60006119596119548461247f565b61244e565b90508281526020810184848401111561197157600080fd5b61197c84828561264a565b509392505050565b6000813590506119938161275c565b92915050565b6000815190506119a88161275c565b92915050565b6000813590506119bd81612773565b92915050565b6000815190506119d281612773565b92915050565b6000815190506119e78161278a565b92915050565b60008083601f8401126119ff57600080fd5b8235905067ffffffffffffffff811115611a1857600080fd5b602083019150836001820283011115611a3057600080fd5b9250929050565b600082601f830112611a4857600080fd5b8135611a58848260208601611946565b91505092915050565b600060608284031215611a7357600080fd5b611a7d606061244e565b90506000611a8d848285016119ae565b6000830152506020611aa184828501611b21565b6020830152506040611ab584828501611b21565b60408301525092915050565b600060608284031215611ad357600080fd5b611add606061244e565b90506000611aed848285016119c3565b6000830152506020611b0184828501611b36565b6020830152506040611b1584828501611b36565b60408301525092915050565b600081359050611b30816127a1565b92915050565b600081519050611b45816127a1565b92915050565b600060208284031215611b5d57600080fd5b6000611b6b84828501611999565b91505092915050565b600060208284031215611b8657600080fd5b6000611b94848285016119ae565b91505092915050565b600060208284031215611baf57600080fd5b6000611bbd848285016119d8565b91505092915050565b60008060208385031215611bd957600080fd5b600083013567ffffffffffffffff811115611bf357600080fd5b611bff858286016119ed565b92509250509250929050565b600060208284031215611c1d57600080fd5b600082013567ffffffffffffffff811115611c3757600080fd5b611c4384828501611a37565b91505092915050565b60008060408385031215611c5f57600080fd5b600083013567ffffffffffffffff811115611c7957600080fd5b611c8585828601611a37565b9250506020611c9685828601611984565b9150509250929050565b60008060408385031215611cb357600080fd5b600083013567ffffffffffffffff811115611ccd57600080fd5b611cd985828601611a37565b925050602083013567ffffffffffffffff811115611cf657600080fd5b611d0285828601611a37565b9150509250929050565b60008060408385031215611d1f57600080fd5b600083013567ffffffffffffffff811115611d3957600080fd5b611d4585828601611a37565b9250506020611d5685828601611b21565b9150509250929050565b60008060008060808587031215611d7657600080fd5b600085013567ffffffffffffffff811115611d9057600080fd5b611d9c87828801611a37565b9450506020611dad87828801611b21565b9350506040611dbe87828801611b21565b9250506060611dcf87828801611b21565b91505092959194509250565b600060608284031215611ded57600080fd5b6000611dfb84828501611ac1565b91505092915050565b60008060808385031215611e1757600080fd5b6000611e2585828601611a61565b925050606083013567ffffffffffffffff811115611e4257600080fd5b611e4e85828601611a37565b9150509250929050565b611e6181612614565b82525050565b611e70816125cc565b82525050565b611e7f816125cc565b82525050565b611e8e816125ba565b82525050565b611e9d816125de565b82525050565b6000611eae826124af565b611eb881856124ba565b9350611ec8818560208601612659565b611ed18161274b565b840191505092915050565b6000611ee7826124af565b611ef181856124cb565b9350611f01818560208601612659565b80840191505092915050565b6000611f1a6017836124ba565b91507f537572766579206973207374696c6c206163746976652e0000000000000000006000830152602082019050919050565b6000611f5a601e836124ba565b91507f4f6e6c7920616c6c6f77656420666f7220537572766579204f776e65722e00006000830152602082019050919050565b6000611f9a6023836124ba565b91507f537572766579204f776e65722063616e27742074616b65206f776e207375727660008301527f65792e00000000000000000000000000000000000000000000000000000000006020830152604082019050919050565b6000612000602f836124ba565b91507f5265776172642070657220726573706f6e7365206e6565647320746f2062652060008301527f67726561746572207468616e20302e00000000000000000000000000000000006020830152604082019050919050565b60006120666010836124ba565b91507f4e6f74205061696420456e6f7567682e000000000000000000000000000000006000830152602082019050919050565b60006120a66010836124ba565b91507f5472616e73666572206661696c65642e000000000000000000000000000000006000830152602082019050919050565b6060820160008201516120ef6000850182611e67565b506020820151612102602085018261211b565b506040820151612115604085018261211b565b50505050565b6121248161260a565b82525050565b6121338161260a565b82525050565b60006121458284611edc565b915081905092915050565b60006020820190506121656000830184611e85565b92915050565b60006020820190506121806000830184611e76565b92915050565b600060408201905061219b6000830185611e85565b81810360208301526121ad8184611ea3565b90509392505050565b60006060820190506121cb6000830186611e85565b81810360208301526121dd8185611ea3565b90506121ec604083018461212a565b949350505050565b60006040820190506122096000830185611e85565b612216602083018461212a565b9392505050565b60006020820190506122326000830184611e94565b92915050565b600060208201905081810360008301526122528184611ea3565b905092915050565b600060408201905081810360008301526122748185611ea3565b90506122836020830184611e85565b9392505050565b600060408201905081810360008301526122a48185611ea3565b90506122b36020830184611e58565b9392505050565b600060608201905081810360008301526122d48186611ea3565b90506122e36020830185611e85565b6122f0604083018461212a565b949350505050565b600060408201905081810360008301526123128185611ea3565b9050612321602083018461212a565b9392505050565b6000602082019050818103600083015261234181611f0d565b9050919050565b6000602082019050818103600083015261236181611f4d565b9050919050565b6000602082019050818103600083015261238181611f8d565b9050919050565b600060208201905081810360008301526123a181611ff3565b9050919050565b600060208201905081810360008301526123c181612059565b9050919050565b600060208201905081810360008301526123e181612099565b9050919050565b60006060820190506123fd60008301846120d9565b92915050565b600060808201905061241860008301856120d9565b818103606083015261242a8184611ea3565b90509392505050565b6000602082019050612448600083018461212a565b92915050565b6000604051905081810181811067ffffffffffffffff821117156124755761247461271c565b5b8060405250919050565b600067ffffffffffffffff82111561249a5761249961271c565b5b601f19601f8301169050602081019050919050565b600081519050919050565b600082825260208201905092915050565b600081905092915050565b60006124e18261260a565b91506124ec8361260a565b9250827fffffffffffffffffffffffffffffffffffffffffffffffffffffffffffffffff03821115612521576125206126be565b5b828201905092915050565b60006125378261260a565b91506125428361260a565b9250817fffffffffffffffffffffffffffffffffffffffffffffffffffffffffffffffff048311821515161561257b5761257a6126be565b5b828202905092915050565b60006125918261260a565b915061259c8361260a565b9250828210156125af576125ae6126be565b5b828203905092915050565b60006125c5826125ea565b9050919050565b60006125d7826125ea565b9050919050565b60008115159050919050565b600073ffffffffffffffffffffffffffffffffffffffff82169050919050565b6000819050919050565b600061261f82612626565b9050919050565b600061263182612638565b9050919050565b6000612643826125ea565b9050919050565b82818337600083830152505050565b60005b8381101561267757808201518184015260208101905061265c565b83811115612686576000848401525b50505050565b600060028204905060018216806126a457607f821691505b602082108114156126b8576126b76126ed565b5b50919050565b7f4e487b7100000000000000000000000000000000000000000000000000000000600052601160045260246000fd5b7f4e487b7100000000000000000000000000000000000000000000000000000000600052602260045260246000fd5b7f4e487b7100000000000000000000000000000000000000000000000000000000600052604160045260246000fd5b6000601f19601f8301169050919050565b612765816125ba565b811461277057600080fd5b50565b61277c816125cc565b811461278757600080fd5b50565b612793816125de565b811461279e57600080fd5b50565b6127aa8161260a565b81146127b557600080fd5b5056fea2646970667358221220308bb09836aedd8757d8f6fc4dbb7acd14311a872c1629e2fe63f81d12674cff64736f6c63430008000033",
  "immutableReferences": {},
  "source": "// SPDX-License-Identifier: MIT\npragma solidity >=0.5.16 <0.9.0;\npragma experimental ABIEncoderV2;\n\nimport \"@openzeppelin/contracts/utils/math/SafeMath.sol\";\nimport \"./RewardEscrow.sol\";\n\ncontract SurveyProcessor is RewardEscrow {\n\n    using SafeMath for uint256;\n\n    // @notice About survey \n    // @dev Describe the survey, new attributes should be extended here\n    struct SurveyInfo {\n        string surveyId;              // survey ID\n        uint256 closingDate;          // survey closing date\n    }\n\n    struct ResponseResults {\n        uint256 totalRecords;           // total records of survey responses\n        ResponseInfo[] responses;      \n    }\n    struct ResponseInfo {\n        address payable erc20Address;    // survey respondant address\n        string metadata;                 // response metadata location\n    }\n\n    // @notice RewardEscrow contract address\n    address payable escrowAddress;\n\n    // @notice surveys owned by survey creator\n    // @dev survey id mapped to survey owner key with SurveyInfo struct\n    mapping (string => mapping(address => SurveyInfo)) surveys;\n\n    // @notice survey responses metadata file location \n    // @dev survey id mapped to survey owner key with responses metadata location as values\n    mapping (string => ResponseResults) responses;\n\n    /**\n     * Events\n     */\n\n    // @notice Emitted when survey is created successfully\n    // @param surveyOwner Survey Creator address\n    // @param surveyId CID of survey\n    event LogSurveyRegistered(address surveyOwner, string surveyId);\n\n    // @notice Emitted when survey is removed successfully\n    // @param surveyOwner Survey Creator address\n    // @param surveyId CID of survey\n    event LogSurveyRemoved(address surveyOwner, string surveyId);\n\n    // @notice Emitted when survey response is submitted successfully\n    // @param respondent Survey Respondent address\n    // @param surveyId CID of survey\n    // @param totalResponses total number of responses for the survey\n    event LogSurveyResponseSubmitted(address respondent, string surveyId, uint256 totalResponses);\n\n    // @notice Emitted when survey response exists\n    // @param respondent Survey Respondent address\n    // @param surveyId CID of survey\n    event LogSurveyResponseExists(address respondent, string surveyId);\n\n    // @notice Emitted when rewards meant for survey are deposited into RewardEscrow Contract\n    // @param surveyOwner Survey Creator address\n    // @param amount Total Rewards\n    event LogRewardTransferToEscrow(address surveyOwner, uint256 amount);\n\n    // @notice Emitted when the reward is deducted from reward escrow account of the survey\n    // @param surveyId CID of survey\n    // @param amountDeducted Reward per response deducted\n    event LogDeductBalanceFromPool(string surveyId, uint256 amountDeducted);\n\n    /**\n     * Modifiers\n     */\n\n    modifier surveyExists(string memory _surveyId) {\n        require(bytes(surveys[_surveyId][msg.sender].surveyId).length != 0, \"Survey does not exist.\");\n        _;\n    }\n    \n    modifier surveyResponseExists(string memory _surveyId) {\n        // TODO: check if survey response exists\n        _;\n    }\n\n    modifier surveyIsClosed(string memory _surveyId) {\n        require(block.timestamp >= surveys[_surveyId][msg.sender].closingDate, \"Survey is still active.\");\n        _;\n    }\n\n    modifier surveyIsNotClosed(string memory _surveyId) {\n        require(block.timestamp < surveys[_surveyId][msg.sender].closingDate, \"Survey is closed\");\n        _;\n    }\n\n    modifier escrowAddrIsSet() {\n        require(escrowAddress != address(0));\n        _;\n    }\n\n    modifier validateReward(uint256 _reward) {\n        require(_reward > 0, \"Reward per response needs to be greater than 0.\");\n        _;\n    }\n\n    modifier paidEnough(uint256 _amount) {\n        require(msg.value >= _amount, \"Not Paid Enough.\");\n        _;\n    }\n\n    modifier balanceEnough(string memory _surveyId, uint256 _totalAmountToDeduct) {\n        require(_totalAmountToDeduct < getTotalDistributableRewardsOfSurvey(_surveyId));\n        _;\n    }\n\n    modifier validateDeposit(RewardPoolInfo memory _rewardPool) {\n        require(_rewardPool.totalRewards <= address(msg.sender).balance , \"Survey Creator's token balance is not enough.\");\n        require(_rewardPool.rewardPerResponse > 0, \"Reward per response needs to be greater than 0.\");\n        _;\n    }\n\n    modifier onlySurveyOwner(string memory _surveyId) {\n        require(RewardEscrow(escrowAddress).getSurveyOwner(_surveyId) == msg.sender , \"Only allowed for Survey Owner.\");\n        _;\n    }\n\n    modifier exceptSurveyOwner(string memory _surveyId) {\n        require(RewardEscrow(escrowAddress).getSurveyOwner(_surveyId) != msg.sender, \"Survey Owner can't take own survey.\" );\n        _;\n    }\n\n\n    constructor(address payable _escrowAddress) {\n        escrowAddress = _escrowAddress;\n    }\n\n    // @notice For overwriting Reward Escrow contract address\n    // @param _address Reward Escrow contract address\n    function setEscrowAddress(address payable _address) external {\n        escrowAddress = _address;\n    }\n\n    // @notice Retrieve Reward Escrow contract address\n    // @return Reward Escrow contract address\n    function getEscrowAddress() external view returns (address){\n        return escrowAddress;\n    }\n\n    // @notice For overwriting Survey Processor Contract address in Reward Escrow Contract\n    // @param _address Survey Processor contract address\n    function setSurveyProcessorAddress(address payable _address) public {\n        RewardEscrow(escrowAddress).setAgent(_address);\n    }\n\n    // @notice Check if Survey ID is stored\n    // @dev Survey ID is stored in surveys mapping, and Survey ID cannot be empty string\n    // @param _surveyId Survey ID\n    // @param _surveyOwner Address of survey creator\n    // @return Survey ID\n    function checkSurveyIdExists(string memory _surveyId, address _surveyOwner) external view returns (bool) {\n        if (bytes(surveys[_surveyId][_surveyOwner].surveyId).length > 0) {\n            return true;\n        }\n\n        return false;\n        // return surveys[_surveyId][_surveyOwner].surveyId;\n    }\n \n\n    // @notice Deposit ETH to Reward Escrow Contract, while saving Reward Pool Information \n    // @dev For the registration to work, Escrow Contract address must be assigned, _reward must not be 0 and \n    //      ETH amount specified in _totalRewards must be transferred\n    // @param _surveyId Survey ID\n    // @param _totalRewards Total ETH Rewards to distribute for survey\n    // @param _reward Reward per survey response\n    // @param _closingDate Survey closing date\n    // @return  Boolean true/false for successful transaction\n    function registerSurvey(string memory _surveyId, uint256 _totalRewards, uint256 _reward, uint256 _closingDate) external payable escrowAddrIsSet paidEnough(_totalRewards) validateReward(_reward) {\n        RewardPoolInfo memory pool = RewardPoolInfo({erc20Address: payable(msg.sender), totalRewards: _totalRewards, rewardPerResponse: _reward});\n        SurveyInfo memory survey = SurveyInfo({surveyId: _surveyId, closingDate: _closingDate});\n        \n        bool success = _deposit(pool, _surveyId);\n        require(success);\n        \n        emit LogRewardTransferToEscrow(msg.sender, _totalRewards);\n\n        surveys[_surveyId][msg.sender] = survey;\n\n        RewardEscrow(escrowAddress).setSurveyOwner(_surveyId, msg.sender);\n        emit LogSurveyRegistered(msg.sender, _surveyId);\n    }\n\n\n    // @notice Deposit ETH to Reward Escrow Contract, while saving Reward Pool Information \n    // @param _rewardPool Information of Reward Pool \n    // @param _surveyId Survey ID\n    // @return success Boolean true/false for successful transaction\n    function _deposit(RewardPoolInfo memory _rewardPool, string memory _surveyId) public paidEnough(_rewardPool.totalRewards) payable returns(bool) {\n        RewardEscrow re = RewardEscrow(escrowAddress);\n        return re.setRewardPoolInfo{value: _rewardPool.totalRewards}(_rewardPool, _surveyId);\n    }\n\n    // @notice Retrieve survey owner's address for survey\n    // @param _surveyId Survey ID\n    // @return Address of survey owner\n    function getOwnerAddressOfSurvey(string memory _surveyId) public view returns(address) {\n        return RewardEscrow(escrowAddress).getRewardPoolInfo(_surveyId).erc20Address;\n    }\n\n    // @notice Retrieve total rewards allocated for survey\n    // @param _surveyId Survey ID\n    // @return Total Rewards in Wei\n    function getTotalDistributableRewardsOfSurvey(string memory _surveyId) public view returns(uint256) {\n        return RewardEscrow(escrowAddress).getRewardPoolInfo(_surveyId).totalRewards;\n    }\n\n    // @notice Retrieve reward per survey response for survey\n    // @param _surveyId Survey ID\n    // @return Reward per Response in Wei\n    function getRewardPerResponseOfSurvey(string memory _surveyId) public view returns(uint256) {\n        return RewardEscrow(escrowAddress).getRewardPoolInfo(_surveyId).rewardPerResponse;\n    }\n\n    // @notice Remove survey when the survey period is closed\n    // @dev Only Survey Owner can get the refund and can delete the survey when the survey period is closed\n    // @param _surveyId Survey ID\n    function refundOnSurveyClosed(string memory _surveyId) external onlySurveyOwner(_surveyId) escrowAddrIsSet surveyIsClosed(_surveyId) {\n        \n        uint256 totalResponses = responses[_surveyId].totalRecords;\n        \n        bool success = RewardEscrow(escrowAddress).refundRemaining(_surveyId, totalResponses);\n        require(success, \"Transfer failed.\");\n\n        // if the transfer to Survey Owner succeeds, ETH balance of Reward Escrow before and after should be different\n        // assert(escrowContractBalanceBefore > RewardEscrow(escrowAddress).getEscrowContractBalance());\n        delete surveys[_surveyId][msg.sender];\n        emit LogSurveyRemoved(msg.sender, _surveyId);\n    }\n\n    // @notice Store survey taker address, location of survey response metadata and update total response count when survey is answered\n    // @dev TODO: Minting of ERC721 token on survey response metadata\n    // @param _surveyId Survey ID\n    // @param _responseMetadata Metadata file location of individual survey response\n    function answerSurvey(string memory _surveyId, string memory _responseMetadata) external exceptSurveyOwner(_surveyId) escrowAddrIsSet {\n        ResponseInfo memory response = ResponseInfo({erc20Address: payable(msg.sender), metadata: _responseMetadata});\n        uint256 totalResponsesBeforeUpdate = responses[_surveyId].totalRecords;\n        uint256 newTotal = totalResponsesBeforeUpdate + 1;\n\n        require(newTotal.mul(getRewardPerResponseOfSurvey(_surveyId)) < getTotalDistributableRewardsOfSurvey(_surveyId));\n        \n        responses[_surveyId].totalRecords = totalResponsesBeforeUpdate + 1;\n        responses[_surveyId].responses.push(response);\n        emit LogSurveyResponseSubmitted(msg.sender, _surveyId, responses[_surveyId].totalRecords);\n    }\n    \n\n}\n\n",
  "sourcePath": "/Users/shelly/Documents/BlkC/consensys/blockchain-developer-bootcamp-final-project/contracts/SurveyProcessor.sol",
  "compiler": {
    "name": "solc",
    "version": "0.8.0+commit.c7dfd78e.Emscripten.clang"
  },
  "schemaVersion": "3.4.3",
  "updatedAt": "2022-01-16T04:55:50.478Z",
  "networkType": "ethereum",
  "devdoc": {
    "kind": "dev",
    "methods": {},
    "version": 1
  },
  "userdoc": {
    "events": {
      "LogAssignedAgent(address)": {
        "notice": "Events"
      },
      "LogSurveyRegistered(address,string)": {
        "notice": "Events"
      }
    },
    "kind": "user",
    "methods": {},
    "version": 1
  }
}